:020000040800F2
:1000000000280020E1020008CD020008CF0200080D
:10001000D1020008D3020008D50200080000000049
:10002000000000000000000000000000D7020008EF
:10003000D902000800000000DB020008C902000825
:1000400029030008290300082903000829030008E0
:1000500029030008290300082903000829030008D0
:1000600029030008290300082903000829030008C0
:1000700029030008290300082903000829030008B0
:1000800029030008290300082903000829030008A0
:100090002903000829030008290300082903000890
:1000A0002903000829030008290300082903000880
:1000B00029030008290300080000000029030008A4
:1000C00029030008000000000000000029030008C8
:1000D00000000000290300082903000800000000B8
:1000E0002903000829030008290300080000000074
:1000F0000000000000000000000000000000000000
:0C01000000000000000000005FF808F1A3
:10010C0010B5054C237833B9044B13B10448AFF345
:10011C0000800123237010BD0C00002000000000A3
:10012C000C01000808B5034B1BB103490348AFF39E
:10013C00008008BD00000000100000200C01000829
:10014C002DE9F04100243A260A254FF005080C272A
:10015C0000F020F8284600F025F8B6FBF8F000F087
:10016C0021F8B4FBF8F000F01DF801344FF47A706C
:10017C0000F01EF93C2CEBD13A2EC3BF013595FB98
:10018C00F7F300240024C6BF264607FB135501369F
:10019C00DEE7000001224FF6F071014800F046BC8A
:1001AC00000801400B2806D810218140002202488B
:1001BC0089B200F03BBC70470008014000B591B01B
:1001CC002422002107A800F08DFC1422002101A894
:1001DC0000F088FC022301210693102306A8CDE928
:1001EC000A1300F0F7F8014608B172B6FEE70F23C8
:1001FC00CDE90300CDE90130059001A800F0ACFA7F
:10020C0008B172B6FEE711B000BD000000B589B0B0
:10021C0000F0AAF8FFF7D2FF102200210DEB02002C
:10022C0000F060FC214B4FF6F0719A69204842F0C7
:10023C0001029A619A6902F001020192019A9A698B
:10024C0042F004029A619A6902F004020292029A44
:10025C009A6942F008029A619B69164A03F00803F6
:10026C000393039B536823F0E06343F08063536074
:10027C00012200F0DBFB01227F210F4800F0D6FBAE
:10028C004FF6F07201230021CDE904230223084824
:10029C00CDE9061304A900F0FBFA7F23064804A954
:1002AC00049300F0F5FAFFF74BFFFEE70010024055
:1002BC000008014000000140000C014000F066B84D
:1002CC007047FEE7FEE7FEE7FEE7704770477047B2
:1002DC0070470000FFF7FCFF0B480C490C4A002349
:1002EC0002E0D458C4500433C4188C42F9D3094AE0
:1002FC00094C002301E013600432A242FBD300F04E
:10030C00F9FBFFF783FF7047000000200C00002072
:10031C008C0B00080C0000202C000020FEE770471E
:10032C0038B50E4B05461A784FF47A73B3FBF2F3DB
:10033C000B4A1068B0FBF3F000F0C0FB044658B950
:10034C000F2D09D8024629464FF0FF3000F086FBEE
:10035C002046044B1D6038BD0120FCE70400002042
:10036C000000002008000020074A08B5136803208D
:10037C0043F01003136000F05FFB0F20FFF7D0FF7A
:10038C00FFF7CDFF002008BD00200240034A044BBC
:10039C0011681B780B441360704700BF28000020C5
:1003AC0004000020014B1868704700BF2800002093
:1003BC0038B50446FFF7F6FF0546631C1EBF044B19
:1003CC001B78E418FFF7EEFF431BA342FAD338BDAA
:1003DC00040000202DE9F341054638B30368DB0720
:1003EC0010D42B689F075ED42B68190700F19580F9
:1003FC002B685A0700F1C180EB69002B40F02C816F
:10040C00002029E0904C636803F00C03042B07D008
:10041C00636803F00C03082B0AD16368DE0307D56D
:10042C0023689C03DDD56B68002BDAD1012013E027
:10043C006B68B3F5803F12D1236843F4803323609B
:10044C00FFF7B0FF064623689803CAD4FFF7AAFF4C
:10045C00801B6428F7D9032002B0BDE8F0819BB95A
:10046C00236823F480332360236823F480232360E0
:10047C00FFF798FF064623689903B2D5FFF792FF62
:10048C00801B6428F7D9E6E7B3F5A02F236803D1C6
:10049C0043F480232360CFE723F480332360236865
:1004AC0023F48023CBE7684C636813F00C0F07D060
:1004BC00636803F00C03082B10D16368DA030DD4C6
:1004CC0023689B0702D52B69012BAFD123686A697E
:1004DC0023F0F80343EAC203236085E72A695B4BE8
:1004EC006AB101221A60FFF75DFF064623689F0779
:1004FC00ECD4FFF757FF801B0228F7D9ABE71A6043
:10050C00FFF750FF0646236898077FF56DAFFFF79E
:10051C0049FF801B0228F6D99DE7AA694A4E4B4B2E
:10052C00E2B10122C3F88024FFF73CFF0446736A52
:10053C009B070DD54FF4FA52454B1B68B3FBF2F3F6
:10054C00019300BF019B5A1E0192002BF9D14FE77A
:10055C00FFF728FF001B0228E9D97CE7C3F88024A9
:10056C00FFF720FF0446736A9F077FF541AFFFF743
:10057C0019FF001B0228F6D96DE7334CE369D8004C
:10058C0024D40127E36943F08053E361E36903F06A
:10059C0080530093009B2F4E3368D90518D5EB6818
:1005AC00012B26D1236A43F001032362FFF7FAFEE5
:1005BC0041F288380646236A9B073FD5002F3FF44B
:1005CC001BAFE36923F08053E36115E70027E2E7F3
:1005DC00336843F480733360FFF7E4FE804633687E
:1005EC00DA05DCD4FFF7DEFEA0EB08006428F6D9B0
:1005FC0031E7ABB9236A41F2883823F00103236257
:10060C00236A23F004032362FFF7CCFE0646236A19
:10061C009807D3D5FFF7C6FE801B4045F7D91AE7DC
:10062C00052B236A03D143F004032362BAE723F0BA
:10063C0001032362236A23F00403B6E7FFF7B2FE3B
:10064C00801B4045B7D906E700100240000042422B
:10065C0000000020007000402A4C626802F00C027E
:10066C00082A3ED00022022B274B1A662CD1FFF70A
:10067C0099FE06462368990120D42B6AB3F5803F76
:10068C0005D16268A96822F400320A436260696A83
:10069C0062680B4322F474121343012263601A4BF9
:1006AC001A66FFF77FFE054623689A013FF5A8AE50
:1006BC00FFF778FE401B0228F6D9CCE6FFF772FE56
:1006CC00801B0228D6D9C6E6FFF76CFE05462368C8
:1006DC009B017FF595AEFFF765FE401B0228F6D90E
:1006EC00B9E6012B3FF4A2AE60682B6A00F48032AD
:1006FC009A427FF49BAE6B6A00F47010C01A18BF5C
:10070C000120A9E600100240000042420D4A536845
:10071C0003F00C01082912D10B48C3F38341DB030E
:10072C00405C09D55368094AC3F340435043084A17
:10073C00D35CB0FBF3F07047064B5843704703484B
:10074C00704700BF001002405A0B000800127A00DC
:10075C00580B000800093D002DE9F0410D460446F8
:10076C0010B90120BDE8F081444A136803F0070377
:10077C008B4228D321688E0730D4CA0743D43F4A12
:10078C00136803F00703AB4265D822683C4D12F0A6
:10079C00040F6CD1130706D56B68226923F46053E0
:1007AC0043EAC2036B60FFF7B1FF6B68354AC3F3D2
:1007BC000313D35CD840344B1860344B1868FFF7E4
:1007CC00AFFD0020CEE7136823F007030B43136043
:1007DC00136803F007038B42C3D1CBE7284B11F00E
:1007EC00040F1EBF5A6842F4E0625A60080742BF09
:1007FC005A6842F460525A605A68A06822F0F002BB
:10080C0002435A60B9E762681D4E012A33681AD157
:10081C0013F4003FA5D0736841F2883823F003032A
:10082C0013437360FFF7BEFD07467368626803F0FD
:10083C000C03B3EB820FA2D0FFF7B4FDC01B4045F5
:10084C00F3D903208EE7022A02D113F0007FE1E7EF
:10085C0013F0020FDEE7136823F007032B4313603A
:10086C00136803F00703AB427FF47BAF8DE76B6833
:10087C00E16823F4E0630B436B608BE700200240DC
:10088C0000100240480B0008000000200800002067
:10089C002DE9F74F00224FF00F0E1646DFF878C106
:1008AC005E4B00F104080D6835FA06F402D103B072
:1008BC00BDE8F08F012404FA06F705EA070437EACD
:1008CC00050572D14D68032D06D8013D022D7FD848
:1008DC00DFE805F08F949A00122D00F0928066D814
:1008EC00112D00F08880FF2C94BF8146C1464FEA41
:1008FC008605D9F8007088BF203D0EFA05FA27EA64
:10090C000A0702FA05F52F43C9F80070D1F80490D4
:10091C0019F0805F49D0DCF8185026F0030745F039
:10092C000105CCF81850DCF8185007F1804705F099
:10093C000105019507F5803706F0030A019D4FEA82
:10094C008A0ABD680EFA0AFB25EA0B0B344DA84245
:10095C005ED005F58065A8425CD005F58065A8429F
:10096C0014BF0325022505FA0AF545EA0B05BD60FF
:10097C009D6819F4801F14BF2543A5439D60DD6855
:10098C0019F4001F14BF2543A543DD605D6819F4FD
:10099C00003F14BF2543A5435D601D6819F4803FDB
:1009AC0014BF2C4325EA04041C6001367BE7DFF8F6
:1009BC0074904D450CD015D8A9F580194D4507D02C
:1009CC0009F570294D4503D0A9F580194D458AD1FB
:1009DC008A68DAB1012A08BF07614FF0080218BF14
:1009EC00476180E7DFF840904D45F1D009F580393B
:1009FC00ECE7CA6877E7CA68043274E7CA68083259
:100A0C0071E7CA680C326EE700226CE704226AE7D1
:100A1C000025A8E70125A6E70010024000040140CC
:100A2C000008014000002210000031100AB10161E1
:100A3C0070470904FBE7000007490302CA6803F486
:100A4C00E06322F4E0621204120C134343F0BF6320
:100A5C0043F40033CB60704700ED00E0154B30B52C
:100A6C00DC68C4F30224C4F10703251D042B28BF42
:100A7C000423062D4FF0FF3594BF0024033C05FAE8
:100A8C0003F321EA0303A54022EA0502A340002850
:100A9C0043EA0203ACBF00F16040074A4FEA03137C
:100AAC00DBB2ABBF00F5614000F00F0080F8003303
:100ABC00135430BD00ED00E014ED00E00138B0F14E
:100ACC00807F0BD24FF0E023F021054A586182F869
:100ADC0023100020072298611A617047012070478B
:100AEC0000ED00E003460244934200D1704703F846
:100AFC00011BF9E770B500260C4D0D4B5B1B9C10D0
:100B0C00A64209D1002600F02BF80A4D0A4B5B1BBC
:100B1C009C10A64205D170BD55F8043B9847013690
:100B2C00EEE755F8043B98470136F2E7840B0008D2
:100B3C00840B0008840B0008880B000800000000E0
:100B4C000000000001020304060708090102020369
:100B5C000405060708090A0B0C0D0E0F10100000F7
:100B6C00F8B500BFF8BC08BC9E467047F8B500BF8E
:080B7C00F8BC08BC9E4670475E
:040B84003101000833
:040B88000D01000853
:0C0B8C0000127A000100000010000000C0
:04000005080002E10C
:00000001FF
