:020000040800F2
:1000000000280020310500081D0500081F05000814
:100010002105000823050008250500080000000050
:10002000000000000000000000000000270500089C
:1000300029050008000000002B0500080D05000838
:100040007905000879050008790500087905000898
:100050007905000879050008790500087905000888
:100060007905000879050008790500087905000878
:100070007905000879050008790500087905000868
:100080007905000879050008790500087905000858
:100090007905000879050008790500087905000848
:1000A0007905000879050008790500087905000838
:1000B0001105000879050008000000007905000816
:1000C0007905000800000000000000007905000824
:1000D0000000000079050008790500080000000014
:1000E000790500087905000879050008000000007E
:1000F0000000000000000000000000000000000000
:0C01000000000000000000005FF808F1A3
:10010C0010B5054C237833B9044B13B10448AFF345
:10011C0000800123237010BD280000200000000087
:10012C000C01000808B5034B1BB103490348AFF39E
:10013C00008008BD000000002C0000200C0100080D
:10014C000A220C4B30B519680B4B91FBF2F41B686F
:10015C0002FB141193FBF2F002FB1032EFF310854B
:10016C0072B6064B1C6059609860DA6085F3108893
:10017C0030BD00BF08000020040000200C0000204F
:10018C000F22054B1A600822044B1A603222044BD2
:10019C001A60FFF7D5BF00BF080000200400002044
:1001AC00000000203C21F0B44FF46164124D134E5A
:1001BC002A68376801FB02F304FB0733104F3A68D7
:1001CC001344104AB0FBF2FC0CFB12000344B3FBCB
:1001DC00F2F002FB1033B3FBF1F2B2FBF1F0B3FB24
:1001EC00F4F401FB102001FB1233346028603B60F7
:1001FC00F0BCFFF7A5BF00BF0400002008000020E2
:10020C00000000208051010001224FF47071014860
:10021C0000F034BD0008014010B5044601227F21D6
:10022C00064800F02BFD092C07D8054B0022195D60
:10023C000248BDE8104000F021BD10BD000C01408B
:10024C00FC0F000838B50446FFF7DEFF032C10D86E
:10025C00084B53F824502846FFF7DEFF092D08D829
:10026C00054B002233F814100448BDE8384000F068
:10027C0005BD38BD0C000020061000080008014028
:10028C000020044B1860044B1860044B1860FFF7F7
:10029C00D9BF00BF44000020480000204C000020C3
:1002AC0010B51446124A13680A3383420AD21360FB
:1002BC003CB1104A136803F10A01B1F57A7F0ED2F2
:1002CC00116010BD1B1A13600B4B1868013090FBAA
:1002DC00F1F201FB12001860FFF7B4FFE8E7A3F29C
:1002EC00DE331021BDE810400448136000F0CBBC95
:1002FC0048000020440000204C0000200008014071
:10030C0008B5FFF73DFFBDE80840FFF7B9BF012274
:10031C000421FA20FFF7C4BF08B54FF47A7000F03F
:10032C006FF9BDE808400120FFF73CBF08B500F0AD
:10033C00C9F801224FF6FC71064800F09FFC01221F
:10034C004FF67F71044800F099FCBDE80840FFF7B8
:10035C00D7BF00BF00080140000C0140FFF7DCBF15
:10036C000368B3F1804F01D1FFF7D1BF7047000094
:10037C0080B592B000F020F9242202270126102427
:10038C0000210DEB020000F007FE0021142203A84F
:10039C0000F002FE08A8CDE90C64089700F042F9C1
:1003AC00014608B172B6FEE70F23CDE90500CDE991
:1003BC000330079003A800F0F7FA054608B172B6AF
:1003CC00FEE722463A4C014608A800F0E5FDA36979
:1003DC00384A43F00103A361A3694FF6FC7103F0A3
:1003EC0001030193019BA369334843F00403A36108
:1003FC00A36903F004030293029BA36943F008036F
:10040C00A361A36903F008030393039B536823F0D0
:10041C00E06343F080635360324600F02FFC3246B9
:10042C004FF67F71254800F029FC4FF6FC732248EB
:10043C0008A9CDE90836CDE90A5700F051FB4FF673
:10044C007F731E4808A9089300F04AFBE3694FF03C
:10045C00804243F00103E361E369194C03F00103AB
:10046C000893089B41F63F73C4E9002309232046F7
:10047C00C4E90335A560A56100F060FD024608B132
:10048C0072B6FEE731461C2000F018FC1C2000F070
:10049C0045FCFFF74BFF6FF00102236820461A6101
:1004AC0000F060FC08B172B6FEE7FFF757FFFCE7FF
:1004BC00001002400000014000080140000C014007
:1004CC005000002070B5EFF3108572B60023094A76
:1004DC000C261360084A094813601A4606FB03F100
:1004EC0001334418042BA26062604250F6D185F3AC
:1004FC00108870BDC8000020CC000020980000209F
:10050C0000F06CB8014800F057BC00BF5000002050
:10051C007047FEE7FEE7FEE7FEE77047704770475F
:10052C0070470000FFF7FCFF0B480C490C4A0023F6
:10053C0002E0D458C4500433C4188C42F9D3094A8D
:10054C00094C002301E013600432A242FBD300F0FB
:10055C002BFDFFF70DFF7047000000202800002046
:10056C005010000828000020D4000020FEE770473F
:10057C0038B50E4B05461A784FF47A73B3FBF2F389
:10058C000B4A1068B0FBF3F000F0D6FB044658B9E8
:10059C000F2D09D8024629464FF0FF3000F08EFB94
:1005AC002046044B1D6038BD0120FCE720000020D4
:1005BC001C00002024000020074A08B51368032003
:1005CC0043F01003136000F067FB0F20FFF7D0FF20
:1005DC00FFF7CDFF002008BD00200240034A044B6A
:1005EC0011681B780B441360704700BFD0000020CB
:1005FC0020000020014B1868704700BFD00000207D
:10060C0038B50446FFF7F6FF0546631C1EBF044BC6
:10061C001B78E418FFF7EEFF431BA342FAD338BD57
:10062C00200000202DE9F341054638B30368DB07B1
:10063C0010D42B689F075ED42B68190700F19580A6
:10064C002B685A0700F1C180EB69002B40F02C811C
:10065C00002029E0904C636803F00C03042B07D0B6
:10066C00636803F00C03082B0AD16368DE0307D51B
:10067C0023689C03DDD56B68002BDAD1012013E0D5
:10068C006B68B3F5803F12D1236843F48033236049
:10069C00FFF7B0FF064623689803CAD4FFF7AAFFFA
:1006AC00801B6428F7D9032002B0BDE8F0819BB908
:1006BC00236823F480332360236823F4802323608E
:1006CC00FFF798FF064623689903B2D5FFF792FF10
:1006DC00801B6428F7D9E6E7B3F5A02F236803D174
:1006EC0043F480232360CFE723F480332360236813
:1006FC0023F48023CBE7684C636813F00C0F07D00E
:10070C00636803F00C03082B10D16368DA030DD473
:10071C0023689B0702D52B69012BAFD123686A692B
:10072C0023F0F80343EAC203236085E72A695B4B95
:10073C006AB101221A60FFF75DFF064623689F0726
:10074C00ECD4FFF757FF801B0228F7D9ABE71A60F0
:10075C00FFF750FF0646236898077FF56DAFFFF74C
:10076C0049FF801B0228F6D99DE7AA694A4E4B4BDC
:10077C00E2B10122C3F88024FFF73CFF0446736A00
:10078C009B070DD54FF4FA52454B1B68B3FBF2F3A4
:10079C00019300BF019B5A1E0192002BF9D14FE728
:1007AC00FFF728FF001B0228E9D97CE7C3F8802457
:1007BC00FFF720FF0446736A9F077FF541AFFFF7F1
:1007CC0019FF001B0228F6D96DE7334CE369D800FA
:1007DC0024D40127E36943F08053E361E36903F018
:1007EC0080530093009B2F4E3368D90518D5EB68C6
:1007FC00012B26D1236A43F001032362FFF7FAFE93
:10080C0041F288380646236A9B073FD5002F3FF4F8
:10081C001BAFE36923F08053E36115E70027E2E7A0
:10082C00336843F480733360FFF7E4FE804633682B
:10083C00DA05DCD4FFF7DEFEA0EB08006428F6D95D
:10084C0031E7ABB9236A41F2883823F00103236204
:10085C00236A23F004032362FFF7CCFE0646236AC7
:10086C009807D3D5FFF7C6FE801B4045F7D91AE78A
:10087C00052B236A03D143F004032362BAE723F068
:10088C0001032362236A23F00403B6E7FFF7B2FEE9
:10089C00801B4045B7D906E70010024000004242D9
:1008AC001C000020007000402A4C626802F00C0210
:1008BC00082A3ED00022022B274B1A662CD1FFF7B8
:1008CC0099FE06462368990120D42B6AB3F5803F24
:1008DC0005D16268A96822F400320A436260696A31
:1008EC0062680B4322F474121343012263601A4BA7
:1008FC001A66FFF77FFE054623689A013FF5A8AEFE
:10090C00FFF778FE401B0228F6D9CCE6FFF772FE03
:10091C00801B0228D6D9C6E6FFF76CFE0546236875
:10092C009B017FF595AEFFF765FE401B0228F6D9BB
:10093C00B9E6012B3FF4A2AE60682B6A00F480325A
:10094C009A427FF49BAE6B6A00F47010C01A18BF09
:10095C000120A9E600100240000042420D4A5368F3
:10096C0003F00C01082912D10B48C3F38341DB03BC
:10097C00405C09D55368094AC3F340435043084AC5
:10098C00D35CB0FBF3F07047064B584370470348F9
:10099C00704700BF001002402010000800127A00BF
:1009AC001E10000800093D002DE9F0410D460446DB
:1009BC0010B90120BDE8F081444A136803F0070325
:1009CC008B4228D321688E0730D4CA0743D43F4AC0
:1009DC00136803F00703AB4265D822683C4D12F054
:1009EC00040F6CD1130706D56B68226923F460538E
:1009FC0043EAC2036B60FFF7B1FF6B68354AC3F380
:100A0C000313D35CD840344B1860344B1868FFF791
:100A1C00AFFD0020CEE7136823F007030B431360F0
:100A2C00136803F007038B42C3D1CBE7284B11F0BB
:100A3C00040F1EBF5A6842F4E0625A60080742BFB6
:100A4C005A6842F460525A605A68A06822F0F00268
:100A5C0002435A60B9E762681D4E012A33681AD105
:100A6C0013F4003FA5D0736841F2883823F00303D8
:100A7C0013437360FFF7BEFD07467368626803F0AB
:100A8C000C03B3EB820FA2D0FFF7B4FDC01B4045A3
:100A9C00F3D903208EE7022A02D113F0007FE1E79D
:100AAC0013F0020FDEE7136823F007032B431360E8
:100ABC00136803F00703AB427FF47BAF8DE76B68E1
:100ACC00E16823F4E0630B436B608BE7002002408A
:100ADC00001002400E1000081C0000202400002012
:100AEC002DE9F74F00224FF00F0E1646DFF878C1B4
:100AFC005E4B00F104080D6835FA06F402D103B020
:100B0C00BDE8F08F012404FA06F705EA070437EA7A
:100B1C00050572D14D68032D06D8013D022D7FD8F5
:100B2C00DFE805F08F949A00122D00F0928066D8C1
:100B3C00112D00F08880FF2C94BF8146C1464FEAEE
:100B4C008605D9F8007088BF203D0EFA05FA27EA11
:100B5C000A0702FA05F52F43C9F80070D1F8049082
:100B6C0019F0805F49D0DCF8185026F0030745F0E7
:100B7C000105CCF81850DCF8185007F1804705F047
:100B8C000105019507F5803706F0030A019D4FEA30
:100B9C008A0ABD680EFA0AFB25EA0B0B344DA842F3
:100BAC005ED005F58065A8425CD005F58065A8424D
:100BBC0014BF0325022505FA0AF545EA0B05BD60AD
:100BCC009D6819F4801F14BF2543A5439D60DD6803
:100BDC0019F4001F14BF2543A543DD605D6819F4AB
:100BEC00003F14BF2543A5435D601D6819F4803F89
:100BFC0014BF2C4325EA04041C6001367BE7DFF8A4
:100C0C0074904D450CD015D8A9F580194D4507D0D9
:100C1C0009F570294D4503D0A9F580194D458AD1A8
:100C2C008A68DAB1012A08BF07614FF0080218BFC1
:100C3C00476180E7DFF840904D45F1D009F58039E8
:100C4C00ECE7CA6877E7CA68043274E7CA68083206
:100C5C0071E7CA680C326EE700226CE704226AE77F
:100C6C000025A8E70125A6E700100240000401407A
:100C7C000008014000002210000031100AB101618F
:100C8C0070470904FBE7C36801EA030221EA030188
:100C9C0041EA02410161704707490302CA6803F443
:100CAC00E06322F4E0621204120C134343F0BF63BE
:100CBC0043F40033CB60704700ED00E0154B30B5CA
:100CCC00DC68C4F30224C4F10703251D042B28BFE0
:100CDC000423062D4FF0FF3594BF0024033C05FA86
:100CEC0003F321EA0303A54022EA0502A3400028EE
:100CFC0043EA0203ACBF00F16040074A4FEA03131A
:100D0C00DBB2ABBF00F5614000F00F0080F80033A0
:100D1C00135430BD00ED00E014ED00E0002807DBBB
:100D2C0001234109034A00F01F00834042F821309F
:100D3C00704700BF00E100E00138B0F1807F0BD2BA
:100D4C004FF0E023F021054A586182F8231000206F
:100D5C00072298611A6170470120704700ED00E08E
:100D6C007047000090F83D30012B1CD1022380F815
:100D7C003D300368DA6842F00102DA600B4A9342B4
:100D8C0006D0B3F1804F03D0A2F59432934204D134
:100D9C009A6802F00702062A03D01A6842F0010290
:100DAC001A60002070470120704700BF002C0140E2
:100DBC007047704770477047036870B5DD681E69EF
:100DCC000446B1070DD5AA070BD56FF002021A61C4
:100DDC00012202779B699B0769D0FFF7EAFF00238A
:100DEC002377710710D56A070ED56FF004022368BC
:100DFC0020461A61022222779B6913F4407F5CD053
:100E0C00FFF7D7FF0023237733070FD528070DD51E
:100E1C006FF00802236820461A6104222277DB69EE
:100E2C00990750D0FFF7C5FF00232377F20610D5A2
:100E3C00EB060ED56FF01002236820461A610822CB
:100E4C002277DB6913F4407F43D0FFF7B2FF002316
:100E5C002377F00708D5E90706D56FF00102236860
:100E6C0020461A61FFF77CFA320608D52B0606D508
:100E7C006FF08002236820461A6100F08CF870062F
:100E8C0008D5690606D56FF04002236820461A6122
:100E9C00FFF791FFB20622D5AB0620D56FF02002EA
:100EAC0023682046BDE870401A6100F073B8FFF764
:100EBC007FFF2046FFF77EFF91E7FFF779FF204683
:100ECC00FFF778FF9EE7FFF773FF2046FFF772FFEF
:100EDC00AAE7FFF76DFF2046FFF76CFFB7E770BD81
:100EEC00154A0368904206D0B0F1804F03D0A2F5AA
:100EFC009432904207D14A6823F070031343CA68B6
:100F0C0023F4407313434A6923F0800313430360B3
:100F1C008B68C3620B688362074B984204BF0B69F2
:100F2C000363012343610369DB0742BF036923F0B9
:100F3C0001030361704700BF002C014010B504464B
:100F4C0030B390F83D3003F0FF021BB980F83C2021
:100F5C00FFF706FF0223206884F83D30211DFFF7C0
:100F6C00BFFF0123002084F8463084F83E3084F81B
:100F7C003F3084F8403084F8413084F8423084F8B3
:100F8C00433084F8443084F8453084F83D3010BD4B
:100F9C000120FCE77047704703460244934200D19E
:100FAC00704703F8011BF9E770B500260C4D0D4B8B
:100FBC005B1B9C10A64209D1002600F033F80A4DA9
:100FCC000A4B5B1B9C10A64205D170BD55F8043B27
:100FDC0098470136EEE755F8043B98470136F2E79F
:100FEC004810000848100008481000084C10000871
:100FFC003F065B4F666D7D077F6F400080000001F0
:10100C0000020000000000000000010203040607BB
:10101C000809010202030405060708090A0B0C0D56
:10102C000E0F1010F8B500BFF8BC08BC9E467047F8
:0C103C00F8B500BFF8BC08BC9E46704729
:04104800310100086A
:04104C000D0100088A
:1010500032000000080000000F0000000100000046
:1010600002000000030000000400000000127A00EB
:08107000010000001000000067
:0400000508000531B9
:00000001FF
